:020000040800F2
:10000000000002203D0A00083B0A0008390A0008E7
:10001000390A0008390A0008390A000800000000FF
:100020000000000000000000000000003B0A000883
:100030003B0A0008000000003B0A00083B0A0008D9
:10004000390A0008390A0008390A0008390A000884
:10005000390A0008390A0008390A0008390A000874
:10006000390A0008390A0008390A0008390A000864
:10007000390A0008390A0008390A0008390A000854
:10008000390A0008390A0008390A0008390A000844
:10009000390A0008390A0008390A0008390A000834
:1000A000390A0008390A0008390A0008390A000824
:1000B000390A0008390A0008390A0008390A000814
:1000C000390A0008390A0008390A0008390A000804
:1000D000390A0008390A0008390A0008390A0008F4
:1000E000390A0008390A0008390A0008390A0008E4
:1000F000390A0008390A0008390A0008390A0008D4
:10010000390A0008390A0008390A0008390A0008C3
:10011000390A0008390A0008390A0008390A0008B3
:10012000390A0008390A0008390A0008390A0008A3
:10013000390A0008390A0008390A0008390A000893
:10014000390A0008390A0008390A0008390A000883
:10015000390A0008390A0008390A0008390A000873
:10016000390A0008390A0008390A0008390A000863
:10017000390A0008390A0008390A0008390A000853
:10018000390A0008390A0008390A0008390A000843
:10019000390A0008390A0008390A0008390A000833
:1001A000390A0008390A0008390A0008044B0548D2
:1001B0001B1A062B02D9044B03B11847704700BF26
:1001C0006700002064000020000000000549064888
:1001D000091A891001EBD171491002D0034B03B108
:1001E00018477047640000206400002000000000F1
:1001F00010B5064C237843B9FFF7D8FF044B13B171
:100200000448AFF300800123237010BD6800002074
:10021000000000002414000808B5084B1BB1084971
:100220000848AFF300800848036813B9BDE80840E8
:10023000CCE7064B002BF9D09847F7E70000000009
:100240006C0000202414000864000020000000005E
:1002500090B587B000AF3A4B1B68184600F05CFBC6
:100260004FF4C06000F051FA00F016F900F028F9E0
:100270004FF47A5000F086F940F2036000F045FA3E
:100280004FF40043002201212E4800F01CFA00F038
:1002900037F90346FB824FF000034FF00004C7E933
:1002A00002340023FB800121274800F0B3FB034602
:1002B000002BF8D04FF40041224800F0FFF900F085
:1002C0003FF90346FB82FB8A184600F0D5FD034642
:1002D0000C4644EC103B00F03BF887ED020B97ED29
:1002E000020B00F02FFC51EC100B13A3D3E90023F9
:1002F00000F086FC03460C461846214601F044F8FF
:100300000346FB80FB88184600F02CF901210E48BB
:1003100000F086FB00BF0D4800F059F9034683F05A
:100320000103DBB2002BF6D14FF40041054800F089
:10033000C7F9B8E7AFF300800000000000FC9F4061
:1003400004000020000C024000100040002001408A
:100350002DE9B04386B000AF87ED000B4FF00003EE
:100360004FF00004C7E9023400237B61464BD3E918
:100370000045464BD3E90001D7E9002300F0F2FD28
:1003800002460B462046294600F03AFC03460C463E
:10039000C7E9023437E07B6901333B4ADB00134491
:1003A000D3E900457B690133384ADB001344D3E9C4
:1003B0000001D7E9002300F0D5FD02460B46204698
:1003C000294600F01DFC03460C4625461C467B6969
:1003D00001332F4ADB001344D3E90001D7E902239C
:1003E00000F0C0FD02460B462046294600F006FC00
:1003F00003460C4624497A69D2000A44C2E9003413
:100400007B6901337B61234B1B689A1E7B699A428F
:10041000C1DC204B1B689D1E1E4B1B68013B1B4A09
:10042000DB001344D3E90001D7E9002300F09AFD73
:1004300003460C469846A146164B1B68013B144ADE
:10044000DB001344D3E90001D7E9022300F08AFD61
:1004500003460C461A4623464046494600F0CEFB6A
:1004600003460C460849EA000A44C2E90034D7E9C9
:10047000023444EC173BB0EE470AF0EE670A183737
:10048000BD46BDE8B08300BF880000200800002002
:10049000300000200000002080B500AF10230022B3
:1004A0000321064800F00FF940F61D0000F02DF979
:1004B000002000F0C3F800BF80BD00BF0000024074
:1004C00080B500AF0123002203210B4800F0FBF8A8
:1004D00040F6880000F019F9084800F073F8074862
:1004E00000F07BF801220021044800F08AF803485C
:1004F00000F082F800BF80BD0000024000200140F3
:1005000080B582B000AF0D4800F06CF800BF0B481A
:1005100000F05DF8034683F00103DBB2002BF6D157
:10052000064800F058F80346FB80044800F05AF8EB
:10053000FB8818460837BD4680BD00BF002001403B
:1005400080B582B000AF064800F045F80346FB8056
:10055000034800F047F8FB8818460837BD4680BDC1
:100560000020014080B582B000AF0346FB80FB88CD
:1005700000220121184600F079F800BF0837BD4677
:1005800080BD000080B582B000AF0346FB8040F61E
:10059000040000F0BAF80021094800F049FA41F2DD
:1005A0008141074800F046FA0121054800F02EFA83
:1005B000034800F038FA00BF0837BD4680BD00BFD1
:1005C00000100040436823F4807343607047006864
:1005D000C0F340007047C06C7047836823F002038B
:1005E00083607047836843F0804300F108028360B2
:1005F00013685B00FCD47047836843F00103836099
:100600007047092910B50BD8036901EB4101072494
:100610008C4023EA040302FA01F11943016110BD81
:100620000A39C36801EB410107248C4023EA040323
:1006300002FA01F11943C16010BD0000012809D080
:1006400002D302280BD07047074A136843F0010316
:1006500013607047044A136843F48033F8E7024A92
:10066000136843F00113F3E70074004062B90129F5
:1006700006D002D3022905D070470A4B1860704794
:10068000094BFBE7094BF9E7012AF8D1012905D00D
:1006900002D3022904D07047054BEFE7054BEDE785
:1006A000054BEBE710740040087400400C740040E8
:1006B0001C7400401474004018740040816170473D
:1006C0000904816170472DE9F0410568C46800267E
:1006D0004FF0030C43FA06F7FF070FD577000CFA2B
:1006E00007FE6FEA0E0E01FA07F80EEA05050EEA9C
:1006F000040402FA07F748EA05053C430136102EC8
:10070000E8D10560C460BDE8F081430903F180438E
:1007100003F50E3300F01F021968012090400843D2
:1007200018607047062822D8DFE800F004171C097B
:100730000E1315000F4B1868C0F3406070470D4B47
:100740001868C0F3404070470A4B1868C0F3400077
:100750007047094BF9E7094BF7E7064B1868C0F3F8
:1007600040707047034B1868C0F3C06070470020AA
:10077000704700BF003802407038024074380240B1
:1007800008B502461046FFF7CDFF0028FAD008BD95
:1007900006280AD8DFE800F004181D0A0F14160016
:1007A0000E4A136843F08073136070470B4A136856
:1007B00043F48033F8E7094A136843F00103F3E791
:1007C000074AF9E7074AF7E7044A136843F08053FA
:1007D000EAE7024A136843F08063E5E70038024025
:1007E000703802407438024006280AD8DFE800F06A
:1007F00004181D0A0F1416000E4A136823F08073A4
:10080000136070470B4A136823F48033F8E7094AF2
:10081000136823F00103F3E7074AF9E7074AF7E70C
:10082000044A136823F08053EAE7024A136823F06E
:100830008063E5E7003802407038024074380240B7
:10084000034A136823F0030318431060704700BF86
:1008500008380240034A136823F4604343EA4030F7
:100860001060704708380240034A136823F4E053CD
:1008700043EA80201060704708380240034A13683A
:1008800023F0F00343EA001010607047083802407C
:1008900010B547F6C07404EA811100F03F001B0652
:1008A00003F0706301431943029B5408022B04F1C7
:1008B000FF344FEA044438BF022304F440341B07DA
:1008C00003F0E04321431943014B196010BD00BF01
:1008D000043802401B0603F0706300F03F0043F44D
:1008E0008003034347F6C07000EA81110B435108AF
:1008F000009A0139022A4FEA014138BF022201F46D
:100900004031120702F0E0420B431343014A1360E7
:10091000704700BF0438024037B504460420FFF793
:1009200037FF0420FFF72CFF0020FFF789FFE37952
:10093000012B05D10320FFF72BFF0320FFF720FF3A
:1009400040F61C00FFF7E1FEE07B00F0EFF8207BB3
:10095000FFF794FF607BFFF787FFA07BFFF77AFF2D
:10096000254A6188136823F080731360E379A579C1
:10097000227920780095012B637931D1FFF7AAFF06
:100980001D4A136843F0807313600020FFF7F8FEE0
:10099000A3685A0527D500F0A9F8A3689B0525D5BB
:1009A00000F0B4F8A06800F097F80220FFF748FFC5
:1009B000124A1368C3F38103022BFAD1104B226948
:1009C0001A60104B62691A600F4BA2691A60E379D2
:1009D000012B0ED1042003B0BDE83040FFF704BF67
:1009E000FFF756FFCCE700F089F8D6E700F096F85D
:1009F000D8E703B030BD00BF0038024008380240DD
:100A0000580000205C00002060000020C3681943EB
:100A1000C160704703690B4214BF0120002070477A
:100A2000C94301617047036843F0010303607047E5
:100A300081627047C1627047FEE7704738B51B4955
:100A40001B4C1C480022531883421BD31A4A002116
:100A500093421BD3194A1A4C13681A4D43F400737E
:100A60001360536F43F470035367AC4211D3164CB9
:100A7000164DAC4211D3FFF7EBFB154C154DAC42B4
:100A80000FD338BD135953500432DCE719600433D7
:100A9000DEE754F8043B9847E7E754F8043B9847EF
:100AA000E7E754F8043B9847E9E700BF000000205F
:100AB0002C14000864000020A800002014ED00E0C1
:100AC0002414000824140008241400082814000822
:100AD000281400082C140008034A136823F00F039D
:100AE00018431060704700BF003C0240024A136880
:100AF00043F4806313607047003C0240024A13686D
:100B000023F4806313607047003C0240024A13687C
:100B100043F4007313607047003C0240024A1368BC
:100B200023F4007313607047003C0240044A1368CA
:100B3000800323F4404380B218431060704700BF25
:100B400000700040F8B553EC102BC3F30A54A4F224
:100B5000FF301328194610EE106A12DC002832DB31
:100B6000234D05412B421F462AD04FF4002101415D
:100B7000394421EA050100240B46224643EC102BA0
:100B8000F8BD332805DDB0F5806F22D043EC102B83
:100B9000F8BDA4F213444FF0FF3525FA04F42242C5
:100BA000F4D00123C0F1330003FA00F0801928BF0C
:100BB000C91820EA04040B46224643EC102BF8BD6A
:100BC000002AD2D1E2E7013003F0004109D000242D
:100BD000D2E710EE100A194600F012F841EC100BA3
:100BE000F8BD41F07F5141F440110024C4E700BF3B
:100BF000FFFF0F0081F0004102E000BF83F00043DF
:100C000030B54FEA41044FEA430594EA050F08BFA7
:100C100090EA020F1FBF54EA000C55EA020C7FEA6B
:100C2000645C7FEA655C00F0E2804FEA5454D4EBE8
:100C30005555B8BF6D420CDD2C4480EA020281EAB2
:100C4000030382EA000083EA010180EA020281EAEA
:100C50000303362D88BF30BD11F0004F4FEA01313C
:100C60004FF4801C4CEA113102D0404261EB41014B
:100C700013F0004F4FEA03334CEA133302D05242D1
:100C800063EB430394EA050F00F0A780A4F101048D
:100C9000D5F1200E0DDB02FA0EFC22FA05F28018C7
:100CA00041F1000103FA0EF2801843FA05F35941AD
:100CB0000EE0A5F120050EF1200E012A03FA0EFC2C
:100CC00028BF4CF0020C43FA05F3C01851EBE37156
:100CD00001F0004507D54FF0000EDCF1000C7EEB73
:100CE00000006EEB0101B1F5801F1BD3B1F5001FB1
:100CF0000CD349085FEA30004FEA3C0C04F10104D0
:100D00004FEA445212F5800F80F09A80BCF1004FF8
:100D100008BF5FEA500C50F1000041EB045141EA7A
:100D2000050130BD5FEA4C0C404141EB010111F47B
:100D3000801FA4F10104E9D191F0000F04BF014626
:100D40000020B1FA81F308BF2033A3F10B03B3F104
:100D500020020CDA0C3208DD02F1140CC2F10C0294
:100D600001FA0CF021FA02F10CE002F11402D8BFF2
:100D7000C2F1200C01FA02F120FA0CFCDCBF41EABE
:100D80000C019040E41AA2BF01EB0451294330BD8D
:100D90006FEA04041F3C1CDA0C340EDC04F114046A
:100DA000C4F1200220FA04F001FA02F340EA030041
:100DB00021FA04F345EA030130BDC4F10C04C4F187
:100DC000200220FA02F001FA04F340EA0300294667
:100DD00030BD21FA04F0294630BD94F0000F83F4B1
:100DE000801306BF81F480110134013D4EE77FEA94
:100DF000645C18BF7FEA655C29D094EA050F08BFE0
:100E000090EA020F05D054EA000C04BF19461046C0
:100E100030BD91EA030F1EBF0021002030BD5FEA04
:100E2000545C05D14000494128BF41F0004130BD2C
:100E300014F580043CBF01F5801130BD01F0004580
:100E400045F0FE4141F470014FF0000030BD7FEAF3
:100E5000645C1ABF194610467FEA655C1CBF0B46EE
:100E6000024650EA013406BF52EA033591EA030F05
:100E700041F4002130BD00BF90F0000F04BF0021FD
:100E8000704730B54FF4806404F132044FF0000530
:100E90004FF0000150E700BF90F0000F04BF0021A9
:100EA000704730B54FF4806404F1320410F000450F
:100EB00048BF40424FF000013EE700BF42004FEA0A
:100EC000E2014FEA31014FEA02701FBF12F07F4387
:100ED00093F07F4F81F06051704792F0000F14BF84
:100EE00093F07F4F704730B54FF4607401F00045C8
:100EF00021F0004120E700BF50EA010208BF70471F
:100F000030B54FF000050AE050EA010208BF704713
:100F100030B511F0004502D5404261EB41014FF47C
:100F2000806404F132045FEA915C3FF4DCAE4FF080
:100F300003025FEADC0C18BF03325FEADC0C18BF67
:100F4000033202EBDC02C2F1200300FA03FC20FAB8
:100F500002F001FA03FE40EA0E0021FA02F1144405
:100F6000C1E600BF70B54FF0FF0C4CF4E06C1CEA1A
:100F700011541DBF1CEA135594EA0C0F95EA0C0F8F
:100F800000F0DEF82C4481EA030621EA4C5123EA02
:100F90004C5350EA013518BF52EA033541F4801131
:100FA00043F4801338D0A0FB02CE4FF00005E1FBE4
:100FB00002E506F00042E0FB03E54FF00006E1FB2E
:100FC00003569CF0000F18BF4EF0010EA4F1FF0471
:100FD000B6F5007F64F5407404D25FEA4E0E6D41B1
:100FE00046EB060642EAC62141EA55514FEAC520C2
:100FF00040EA5E504FEACE2EB4F1FD0C88BFBCF53E
:10100000E06F1ED8BEF1004F08BF5FEA500E50F1EE
:10101000000041EB045170BD06F0004646EA0101B4
:1010200040EA020081EA0301B4EB5C04C2BFD4EBE6
:101030000C0541EA045170BD41F480114FF0000EDF
:10104000013C00F3AB8014F1360FDEBF002001F04D
:10105000004170BDC4F10004203C35DA0C341BDCC7
:1010600004F11404C4F1200500FA05F320FA04F099
:1010700001FA05F240EA020001F0004221F00041CD
:1010800010EBD37021FA04F642EB06015EEA430E40
:1010900008BF20EAD37070BDC4F10C04C4F1200570
:1010A00000FA04F320FA05F001FA04F240EA020023
:1010B00001F0004110EBD37041F100015EEA430EF4
:1010C00008BF20EAD37070BDC4F1200500FA05F214
:1010D0004EEA020E20FA04F301FA05F243EA020393
:1010E00021FA04F001F0004121FA04F220EA0200A2
:1010F00000EBD3705EEA430E08BF20EAD37070BDE8
:1011000094F0000F0FD101F00046400041EB0101C7
:1011100011F4801F08BF013CF7D041EA060195F0A9
:10112000000F18BF704703F00046520043EB030363
:1011300013F4801F08BF013DF7D043EA0603704750
:1011400094EA0C0F0CEA135518BF95EA0C0F0CD05B
:1011500050EA410618BF52EA4306D1D181EA0301A1
:1011600001F000414FF0000070BD50EA410606BF9B
:101170001046194652EA430619D094EA0C0F02D1E0
:1011800050EA013613D195EA0C0F05D152EA033625
:101190001CBF104619460AD181EA030101F0004143
:1011A00041F0FE4141F470014FF0000070BD41F08C
:1011B000FE4141F4780170BD70B54FF0FF0C4CF466
:1011C000E06C1CEA11541DBF1CEA135594EA0C0F85
:1011D00095EA0C0F00F0A7F8A4EB050481EA030ED2
:1011E00052EA03354FEA013100F088804FEA0333B9
:1011F0004FF0805545EA131343EA12634FEA022287
:1012000045EA111545EA10654FEA00260EF0004147
:101210009D4208BF964244F1FD0404F5407402D299
:101220005B084FEA3202B61A65EB03055B084FEA2A
:1012300032024FF480104FF4002CB6EB020E75EB27
:10124000030E22BFB61A754640EA0C005B084FEA4F
:101250003202B6EB020E75EB030E22BFB61A7546CC
:1012600040EA5C005B084FEA3202B6EB020E75EB17
:10127000030E22BFB61A754640EA9C005B084FEA8F
:101280003202B6EB020E75EB030E22BFB61A75469C
:1012900040EADC0055EA060E18D04FEA051545EA8B
:1012A00016754FEA06164FEAC30343EA52734FEA34
:1012B000C2025FEA1C1CC0D111F4801F0BD141EAAD
:1012C00000014FF000004FF0004CB6E711F4801F12
:1012D00004BF01430020B4F1FD0C88BFBCF5E06FF2
:1012E0003FF6AFAEB5EB030C04BFB6EB020C5FEA02
:1012F000500C50F1000041EB045170BD0EF0004E57
:101300004EEA113114EB5C04C2BFD4EB0C0541EA88
:10131000045170BD41F480114FF0000E013C90E685
:1013200045EA060E8DE60CEA135594EA0C0F08BF49
:1013300095EA0C0F3FF43BAF94EA0C0F0AD150EA48
:1013400001347FF434AF95EA0C0F7FF425AF1046DB
:1013500019462CE795EA0C0F06D152EA03353FF403
:10136000FDAE1046194622E750EA410618BF52EA80
:1013700043067FF4C5AE50EA41047FF40DAF52EA54
:1013800043057FF4EBAE12E74A0011D212F50012CA
:1013900011D20DD56FF47873B3EB62520ED44FEACD
:1013A000C12343F0004343EA505323FA02F070474D
:1013B0004FF00000704750EA013002D14FF0FF308B
:1013C00070474FF00000704708005001040700010B
:1013D000020600000004000300BD010580DE80025B
:1013E00000BD0105080050010207000105060000CC
:1013F00000050403007A030A80DE800200BD0105B7
:101400000800680102080001050600000005040349
:0C1410000095BA0A40A5AE02804A5D05B6
:04141C00F8B500BF60
:04142000F8B500BF5C
:0414240019020008A1
:04142800F1010008C6
:10142C0005000000C8130008857567B7D2326A3F03
:10143C000000000000000000857567B7D2327ABF4B
:10144C000000000000000000857567B7D2326A3FCB
:10145C00000000000000F03F8A20151501400EC06E
:10146C003CC53EB00DCB15409C095089665A0CC04A
:10147C00077D794C6A1FEC3F0024F4000024F40033
:04148C000024F40044
:0400000508000A3DA8
:00000001FF
